{
  "_format": "hh-sol-artifact-1",
  "contractName": "TokenSale",
  "sourceName": "contracts/TokenSaleContract.sol",
  "abi": [
    {
      "inputs": [
        {
          "internalType": "contract TheBlockchainCoders",
          "name": "_tokenContract",
          "type": "address"
        },
        {
          "internalType": "uint256",
          "name": "_tokenPrice",
          "type": "uint256"
        }
      ],
      "stateMutability": "nonpayable",
      "type": "constructor"
    },
    {
      "anonymous": false,
      "inputs": [
        {
          "indexed": false,
          "internalType": "address",
          "name": "_buyer",
          "type": "address"
        },
        {
          "indexed": false,
          "internalType": "uint256",
          "name": "_amount",
          "type": "uint256"
        }
      ],
      "name": "Sell",
      "type": "event"
    },
    {
      "inputs": [
        {
          "internalType": "uint256",
          "name": "_numberOfTokens",
          "type": "uint256"
        }
      ],
      "name": "buyToken",
      "outputs": [],
      "stateMutability": "payable",
      "type": "function"
    },
    {
      "inputs": [],
      "name": "endSale",
      "outputs": [],
      "stateMutability": "nonpayable",
      "type": "function"
    },
    {
      "inputs": [],
      "name": "tokenContract",
      "outputs": [
        {
          "internalType": "contract TheBlockchainCoders",
          "name": "",
          "type": "address"
        }
      ],
      "stateMutability": "view",
      "type": "function"
    },
    {
      "inputs": [],
      "name": "tokenPrice",
      "outputs": [
        {
          "internalType": "uint256",
          "name": "",
          "type": "uint256"
        }
      ],
      "stateMutability": "view",
      "type": "function"
    },
    {
      "inputs": [],
      "name": "tokensSold",
      "outputs": [
        {
          "internalType": "uint256",
          "name": "",
          "type": "uint256"
        }
      ],
      "stateMutability": "view",
      "type": "function"
    }
  ],
  "bytecode": "0x608060405234801561001057600080fd5b50604051610a09380380610a098339818101604052810190610032919061016c565b336000806101000a81548173ffffffffffffffffffffffffffffffffffffffff021916908373ffffffffffffffffffffffffffffffffffffffff16021790555081600160006101000a81548173ffffffffffffffffffffffffffffffffffffffff021916908373ffffffffffffffffffffffffffffffffffffffff1602179055508060028190555050506101ac565b600080fd5b600073ffffffffffffffffffffffffffffffffffffffff82169050919050565b60006100f1826100c6565b9050919050565b6000610103826100e6565b9050919050565b610113816100f8565b811461011e57600080fd5b50565b6000815190506101308161010a565b92915050565b6000819050919050565b61014981610136565b811461015457600080fd5b50565b60008151905061016681610140565b92915050565b60008060408385031215610183576101826100c1565b5b600061019185828601610121565b92505060206101a285828601610157565b9150509250929050565b61084e806101bb6000396000f3fe60806040526004361061004a5760003560e01c80632d296bf11461004f578063380d831b1461006b578063518ab2a81461008257806355a373d6146100ad5780637ff9b596146100d8575b600080fd5b6100696004803603810190610064919061054a565b610103565b005b34801561007757600080fd5b50610080610281565b005b34801561008e57600080fd5b506100976104a6565b6040516100a49190610586565b60405180910390f35b3480156100b957600080fd5b506100c26104ac565b6040516100cf9190610620565b60405180910390f35b3480156100e457600080fd5b506100ed6104d2565b6040516100fa9190610586565b60405180910390f35b61010f816002546104d8565b341461011a57600080fd5b80600160009054906101000a900473ffffffffffffffffffffffffffffffffffffffff1673ffffffffffffffffffffffffffffffffffffffff166370a08231306040518263ffffffff1660e01b8152600401610176919061065c565b602060405180830381865afa158015610193573d6000803e3d6000fd5b505050506040513d601f19601f820116820180604052508101906101b7919061068c565b10156101c257600080fd5b600160009054906101000a900473ffffffffffffffffffffffffffffffffffffffff1673ffffffffffffffffffffffffffffffffffffffff1663a9059cbb33670de0b6b3a76400008461021591906106e8565b6040518363ffffffff1660e01b815260040161023292919061072a565b6020604051808303816000875af1158015610251573d6000803e3d6000fd5b505050506040513d601f19601f82011682018060405250810190610275919061078b565b61027e57600080fd5b50565b60008054906101000a900473ffffffffffffffffffffffffffffffffffffffff1673ffffffffffffffffffffffffffffffffffffffff163373ffffffffffffffffffffffffffffffffffffffff16146102d957600080fd5b600160009054906101000a900473ffffffffffffffffffffffffffffffffffffffff1673ffffffffffffffffffffffffffffffffffffffff1663a9059cbb60008054906101000a900473ffffffffffffffffffffffffffffffffffffffff16600160009054906101000a900473ffffffffffffffffffffffffffffffffffffffff1673ffffffffffffffffffffffffffffffffffffffff166370a08231306040518263ffffffff1660e01b8152600401610393919061065c565b602060405180830381865afa1580156103b0573d6000803e3d6000fd5b505050506040513d601f19601f820116820180604052508101906103d4919061068c565b6040518363ffffffff1660e01b81526004016103f192919061072a565b6020604051808303816000875af1158015610410573d6000803e3d6000fd5b505050506040513d601f19601f82011682018060405250810190610434919061078b565b61043d57600080fd5b60008054906101000a900473ffffffffffffffffffffffffffffffffffffffff1673ffffffffffffffffffffffffffffffffffffffff166108fc479081150290604051600060405180830381858888f193505050501580156104a3573d6000803e3d6000fd5b50565b60035481565b600160009054906101000a900473ffffffffffffffffffffffffffffffffffffffff1681565b60025481565b6000808214806105005750828283856104f191906106e8565b9250826104fe91906107e7565b145b61050957600080fd5b92915050565b600080fd5b6000819050919050565b61052781610514565b811461053257600080fd5b50565b6000813590506105448161051e565b92915050565b6000602082840312156105605761055f61050f565b5b600061056e84828501610535565b91505092915050565b61058081610514565b82525050565b600060208201905061059b6000830184610577565b92915050565b600073ffffffffffffffffffffffffffffffffffffffff82169050919050565b6000819050919050565b60006105e66105e16105dc846105a1565b6105c1565b6105a1565b9050919050565b60006105f8826105cb565b9050919050565b600061060a826105ed565b9050919050565b61061a816105ff565b82525050565b60006020820190506106356000830184610611565b92915050565b6000610646826105a1565b9050919050565b6106568161063b565b82525050565b6000602082019050610671600083018461064d565b92915050565b6000815190506106868161051e565b92915050565b6000602082840312156106a2576106a161050f565b5b60006106b084828501610677565b91505092915050565b7f4e487b7100000000000000000000000000000000000000000000000000000000600052601160045260246000fd5b60006106f382610514565b91506106fe83610514565b925082820261070c81610514565b91508282048414831517610723576107226106b9565b5b5092915050565b600060408201905061073f600083018561064d565b61074c6020830184610577565b9392505050565b60008115159050919050565b61076881610753565b811461077357600080fd5b50565b6000815190506107858161075f565b92915050565b6000602082840312156107a1576107a061050f565b5b60006107af84828501610776565b91505092915050565b7f4e487b7100000000000000000000000000000000000000000000000000000000600052601260045260246000fd5b60006107f282610514565b91506107fd83610514565b92508261080d5761080c6107b8565b5b82820490509291505056fea26469706673582212206e95ccb3f04af485754e00f33bf30adf7820e639d1cda126f92a9bcc8244229b64736f6c63430008120033",
  "linkReferences": {},
  "deployedLinkReferences": {}
}